{
  "contractName": "TodoList",
  "abi": [
    {
      "constant": true,
      "inputs": [],
      "name": "taskCount",
      "outputs": [
        {
          "name": "",
          "type": "uint256"
        }
      ],
      "payable": false,
      "stateMutability": "view",
      "type": "function"
    }
  ],
  "bytecode": "0x608060405260008055348015601357600080fd5b506099806100226000396000f3fe608060405260043610603e5763ffffffff7c0100000000000000000000000000000000000000000000000000000000600035041663b6cb58a581146043575b600080fd5b348015604e57600080fd5b5060556067565b60408051918252519081900360200190f35b6000548156fea165627a7a723058202cda170bcb5c634bce9f6f54473665643f1453a8fcfa4228c86613ffd64ab8060029",
  "source": "pragma solidity ^0.5.0;\r\n\r\n//Creat first smart contract:\r\ncontract TodoList{\r\n//State variable, written to blockchain\r\nuint public taskCount=0;\r\n\r\n\r\n}",
  "sourcePath": "C:/Users/Thato/Desktop/2021/Programming/ethblockchain/contracts/TodoList.sol",
  "compiler": {
    "name": "solc",
    "version": "0.5.0+commit.1d4f565a.Emscripten.clang"
  },
  "schemaVersion": "3.0.1",
  "updatedAt": "2021-05-16T08:34:58.532Z",
  "devdoc": {
    "methods": {}
  },
  "userdoc": {
    "methods": {}
  }
}